:020000040800F2
:10000000909E002055020008454200085F0200084B
:100010006102000863020008650200080000000099
:100020000000000000000000000000009D0100082A
:100030006902000800000000F10100089D5100085D
:100040006F0200086F0200086F0200086F020008CC
:100050006F0200086F0200086F0200086F020008BC
:100060006F0200086F0200086F0200086F020008AC
:100070006F0200086F0200086F0200086F0200089C
:10008000691900086F0200086F0200086F0200087B
:100090006F0200086F0200086F0200086F0200087C
:1000A0006F0200086F0200086F0200086F0200086C
:1000B0006F0200086F0200086F0200086F0200085C
:1000C0006F0200086F0200086F0200086F0200084C
:1000D0006F0200086F0200086F0200086F0200083C
:1000E0006F0200086F0200086F0200086F0200082C
:1000F0006F0200086F0200086F0200086F0200081C
:100100006F0200086F020008495300086F020008E0
:10011000555800086F0200086F0200086F020008BF
:100120006F0200086F0200086F0200086F020008EB
:100130006F0200086F0200086F0200086F020008DB
:100140006F0200086F0200086F0200086F020008CB
:100150006F0200086F0200086F0200086F020008BB
:100160006F0200086F0200086F0200086F020008AB
:100170006F0200086F0200086F0200086F0200089B
:100180006F0200086F020008DFF80CD000F0DAFB05
:1001900000480047656E0008909E00202A4B1968B1
:1001A0000868B0E8F04F80F30988BFF36F8F4FF015
:1001B000000080F3118870470000000006480068C6
:1001C000006880F3088862B661B6BFF34F8FBFF353
:1001D0006F8F00DF00BF00BF08ED00E0DFF80C000C
:1001E000016841F470010160704700BF88ED00E0D4
:1001F000EFF30980BFF36F8F134B1A681EF0100FD7
:1002000008BF20ED108A20E9F04F106008B44FF0CD
:10021000500080F31188BFF34F8FBFF36F8F07F04B
:10022000A7FF4FF0000080F3118808BC1968086828
:10023000B0E8F04F1EF0100F08BFB0EC108A80F34A
:100240000988BFF36F8F704798010020EFF3058096
:10025000704700000648804706480047FEE7FEE773
:10026000FEE7FEE7FEE7FEE7FEE7FEE7FEE7FEE766
:10027000BD5100088901000840EA01039B0703D033
:1002800009E008C9121F08C0042AFAD203E011F8D5
:10029000013B00F8013B521EF9D27047D2B201E097
:1002A00000F8012B491EFBD270470022F6E710B57B
:1002B00013460A4604461946FFF7F0FF204610BDD4
:1002C0002DE9FE4F804681EA0300C00F0C460090E6
:1002D00021F0004123F00045B8EB0200A94105D20E
:1002E0004046214690461C460B46024623F00040FD
:1002F000104347D0270DC7F30A00C3F30A510290F9
:10030000401A019040286BDAC3F3130040F4801BBD
:100310000098924620B10023D2EB030A63EB0B0B4B
:1003200001985946C0F14002504600F0ECF90646EB
:100330000D4650465946019A00F0F4F910EB0800BA
:100340006141002487EA115284EAE7731A4340D0DE
:10035000009A62B3019A012A4FEA075215DC001B8A
:1003600061EB02014FF0004202EA0752CDE9004280
:10037000001C41F5801132462B4600F02BFA03B0E9
:10038000BDE8F08F40462146F9E7001B61EB020112
:10039000001C41F5801300185B412018A2F50017DE
:1003A00047EB030140EAD570B6196D4111E06D08C5
:1003B0004FEA360645EAC0754FEA0752001B61EB6B
:1003C0000201001C41F5801149084FEA3000001974
:1003D000514132462B4603B0BDE8F04F00F0EBB977
:1003E0000098012240000023D0EB020263EBE0738F
:1003F000009821464FEAE074B8EB000061EB04017D
:10040000E9E783F000435BE781F0004158E72DE91D
:10041000FE4F81EA030404F0004421F000410094FF
:100420004FF0000B23F0004350EA01045ED052EA83
:1004300003045BD0C3F30A54C1F30A552C44A4F25D
:10044000F3340194A0FB0254C1F3130141F4801171
:10045000C3F3130343F4801301FB024400FB034E78
:10046000840A970A44EA815447EA8357A4FB076841
:1004700002958D0A05FB07854FEA932C04FB0C546B
:100480002705029D4FEA065847EA1637B5EB0805DF
:100490006EEB070C870E920E47EA811742EA831231
:1004A000A7FB0201B6EB0B0164EB00042B0D43EA42
:1004B0000C335E1844EB1C50DA465146E7FB020150
:1004C000C5F313044FEA0B3343EA14534FEA0432E3
:1004D000019C43EA0603A4F10C040294009CCDE9BC
:1004E00000B400F077F903B0BDE8F08F00200146BA
:1004F000F9E72DE9F04D81EA030404F0004B21F007
:10050000004514464FF0000A23F0004150EA05026E
:1005100020D054EA01021DD0C5F30A570246C5F3A4
:100520001303C1F31300C1F30A5640F4801543F4DA
:100530008013A7EB0608101BD64608F2FD3873EBB4
:10054000050002D308F1010801E092185B41B8F1FF
:10055000000F03DA00200146BDE8F08D00204FF4C3
:100560008011064684460EE0171B73EB050705D382
:10057000121B63EB050306434CEA010C49084FEAE2
:10058000300092185B4150EA0107EDD152EA0300B6
:1005900012D082EA040083EA0501084305D0101B4B
:1005A000AB4106D20122002306E000224FF00043B7
:1005B00002E06FF0010253101AEB06004CEB0851F9
:1005C00010EB0A0041EB0B01BDE8F04D00F0F3B871
:1005D0000EB540F2334202920022CDE900221346CA
:1005E00000F0F8F803B000BD00F0004230F0004029
:1005F0000AD0C10D01F56071C0F3160042EA015145
:10060000C2084007114370470020014670470000B0
:1006100030B5041E71F1000404DB4FF00044404289
:1006200064EB0101141E73F1000405DB1C464FF05E
:100630000043524263EB0403994208BF904230BD2D
:1006400001F0004330B421F0004150EA010206D02D
:100650000A0DA2F56072C1F31301002A02DC30BC5E
:1006600000207047440F44EAC104C100E01830BCC8
:1006700000EBC25000F068B830B50B4601460020D0
:100680002022012409E021FA02F59D4205D303FA54
:1006900002F5491B04FA02F52844151EA2F10102D5
:1006A000F1DC30BD2DE9F05F0546002092469B4607
:1006B00088460646814640241BE028464146474678
:1006C000224600F051F953465A46C01A914110D3C0
:1006D00011461846224600F016F82D1A67EB01085D
:1006E0004F4622460120002100F00DF817EB0009CB
:1006F0004E41201EA4F10104DFDC484631462A4663
:100700004346BDE8F09F202A04DB203A00FA02F1BC
:10071000002070479140C2F1200320FA03F31943EF
:1007200090407047202A06DBCB17203A41FA02F0AE
:1007300043EAE07306E041FA02F3D040C2F120023E
:1007400091400843194670470029A8BF7047401CD4
:10075000490008BF20F00100704710B4B0FA80FCD7
:1007600000FA0CF050EA010404BF10BC704749B114
:10077000CCF1200421FA04F411FA0CF118BF012184
:1007800021430843A3EB0C01CB1D4FEA00614FEA64
:10079000102042BF002010BC704700EBC350104433
:1007A0000029A4BF10BC7047401C490008BF20F0BE
:1007B000010010BC704710B5141E73F1000408DA74
:1007C000401C41F1000192185B411A4301D120F015
:1007D000010010BD2DE9F04D92469B4611B1B1FAD2
:1007E00081F202E0B0FA80F220329046FFF78BFFF0
:1007F00004460F4640EA0A0041EA0B0153465A46B6
:10080000084313D0114653EA010019D0C8F1400241
:10081000504600F0A9F805460E4650465946424655
:10082000FFF771FF084305D0012004E02046394658
:10083000BDE8F08D0020054346EAE0762C433743BF
:100840000A986305E40AA0EB08000022FD0A44EAC6
:1008500047540A3002D500200146E9E70105101986
:100860006941DDE9084500196941BDE8F04DA2E79D
:100870002DE9F04D00231A461B1A8A4103DB0020A4
:100880000146BDE8F08DC1F30A52C1F3130141F4F2
:1008900080154FF0000BD10702D100186D41521E98
:1008A0000027044640F2FF11384601EB620A3E463B
:1008B0008046024600204FF4801100F055F8C2191E
:1008C0007141BB1846EB0100B4EB030C75EB000C57
:1008D00004D3E41A65EB000517460E46241908F107
:1008E00001006D4180463428E3DDF91946EB06002E
:1008F000091BA84103D24FF0FF32134601E000224A
:1009000013461BEB070046EB0A51BDE8F04DFFF71D
:1009100052BFC1F30A52C1F3130140F2FF3341F455
:1009200080119A4202DA00200146704740F23343B8
:100930009A42A2F2334202DC524200F015B8FFF7AD
:10094000E2BE0000064C074D06E0E06840F00103FF
:1009500094E8070098471034AC42F6D3FFF718FC30
:100960007892000898920008202A04DB203A21FAA5
:1009700002F00021704721FA02F3D040C2F12002B8
:10098000914008431946704770B58C1810F8015B08
:1009900015F0070301D110F8013B2A1106D110F818
:1009A000012B03E010F8016B01F8016B5B1EF9D11C
:1009B0002B0705D40023521E0DD401F8013BFAE7A2
:1009C00010F8013BCB1A921C03E013F8015B01F80D
:1009D000015B521EF9D5A142D8D3002070BD0000A2
:1009E00031B52DED040B2DED028B04469FED430A2E
:1009F000B0EE408A424802A90EC90EC00C3890EDF4
:100A0000000AD0ED110A30EE600AD0ED140A20EE93
:100A1000200A80ED000A90ED010AD0ED120A30EEB6
:100A2000600AD0ED150A20EE200A80ED010A90ED53
:100A3000020AD0ED130A30EE600AD0ED160A20EE5D
:100A4000200A80ED020A90ED021AD0ED010A90ED25
:100A5000000A203001F04CFE294880ED030AC0ED69
:100A6000040A80ED051AD0ED051AB0EE611AD0ED3A
:100A7000041AF0EE610AD0ED031AB0EE610A04F038
:100A800079F81F4880ED060A90ED060A1D48D0ED62
:100A9000000A30EE600ADFED190A80EE201A1A48CB
:100AA00080ED001A164890ED060A164880ED000AFF
:100AB000134890ED070ADFED150A20EE200A1248D0
:100AC000D0ED000AF5EEC00AF1EE10FA02DDD0ED2D
:100AD000000A04E00C48D0ED000AF1EE600A9FED38
:100AE0000C1A00EE810A064880ED070A024607CA82
:100AF00084E80700BDEC028B05B030BD6F12833A6D
:100B000010040020080100200C0100203BDF7F3F83
:100B10006F12033A00B52DED068B85B00422FE4915
:100B2000082003F0EFFE0422FB49091D092003F011
:100B3000E9FE0422F84908310A2003F0E3FE04220A
:100B4000F5490C310B2003F0DDFE0422F24910318F
:100B50000C2003F0D7FE0422EF4914310D2003F0DE
:100B6000D1FE0422EC492831152003F0CBFE0422EB
:100B7000E9492C31162003F0C5FE0422E649303144
:100B8000172003F0BFFEE448443890ED130A10EE3E
:100B9000101A0846FFF728FD41EC180BDE484438D0
:100BA00090ED120A10EE101A0846FFF71DFD41ECF9
:100BB000190BD948443890ED110A10EE101A084666
:100BC000FFF712FD41EC1A0B8DED028B8DED009BB2
:100BD00053EC1A2BD1A004F089FFCF48443890ED94
:100BE000160A10EE101A0846FFF7FEFC41EC180B2F
:100BF000C948443890ED150A10EE101A0846FFF760
:100C0000F3FC41EC190BC448443890ED140A10EE83
:100C1000101A0846FFF7E8FC41EC1A0B8DED028B29
:100C20008DED009B53EC1A2BC9A004F05FFFBA486E
:100C3000443890ED110A10EE101A084604F091FFA6
:100C4000E8BBB548443890ED120A10EE101A084679
:100C500004F087FF98BBB048443890ED130A10EEBB
:100C6000101A084604F07DFF48BBAB48443890EDAD
:100C7000140A10EE101A084604F073FFF8B9A648DB
:100C8000443890ED150A10EE101A084604F069FF7A
:100C9000A8B9A148443890ED160A10EE101A08467B
:100CA00004F05FFF58B99C48443890ED140AB5EE43
:100CB000C00AF1EE10FA0FD090ED150A00E00BE03B
:100CC000B5EEC00AF1EE10FA06D090ED160AB5EEB8
:100CD000C00AF1EE10FA19D19FEDAA0A8E484438E5
:100CE00080ED110A9FEDA70A80ED120A9FEDA50A7B
:100CF00080ED130AB7EE000A80ED140AB7EE000A81
:100D000080ED150AB7EE000A80ED160A82484438D5
:100D100090ED110AB5EEC00AF1EE10FA02DD90ED89
:100D2000110A05E07C48443890ED110AB1EE400A02
:100D3000F7EE000AB4EEE00AF1EE10FA6FDC764846
:100D4000443890ED120AB5EEC00AF1EE10FA02DD59
:100D500090ED120A05E07048443890ED120AB1EEA9
:100D6000400AF7EE000AB4EEE00AF1EE10FA56DCA3
:100D70006948443890ED130AB5EEC00AF1EE10FA56
:100D800002DD90ED130A05E06348443890ED130A44
:100D9000B1EE400AF7EE000AB4EEE00AF1EE10FA06
:100DA0003DDC5D48443890ED140AB5EEC00AF1EE22
:100DB00010FA02DD90ED140A05E05748443890ED32
:100DC000140AB1EE400AF0EE000AB4EEE00AF1EEC9
:100DD00010FA7DDC5048443890ED150AB5EEC00A93
:100DE000F1EE10FA02DD90ED150A05E04A484438AC
:100DF00090ED150AB1EE400AF0EE000AB4EEE00AFA
:100E0000F1EE10FA64DC4448443890ED160AB5EE71
:100E1000C00AF1EE10FA03DD90ED160A06E057E085
:100E20003D48443890ED160AB1EE400AF0EE000A53
:100E3000B4EEE00AF1EE10FA4ADC3748443890ED9F
:100E4000140AB5EEC00AF1EE10FA02DD90ED140AB4
:100E500005E03148443890ED140AB1EE400ADFED68
:100E60004A0AB4EEE00AF1EE10FA31D32A484438C7
:100E700090ED150AB5EEC00AF1EE10FA02DD90ED24
:100E8000150A05E02448443890ED150AB1EE400AF1
:100E9000DFED3D0AB4EEE00AF1EE10FA18D31E4879
:100EA000443890ED160AB5EEC00AF1EE10FA02DDF4
:100EB00090ED160A05E01848443890ED160AB1EE98
:100EC000400ADFED310AB4EEE00AF1EE10FA19D271
:100ED0009FED2C0A1048443880ED110A9FED290A35
:100EE00080ED120A9FED270A80ED130AB7EE000A83
:100EF00080ED140AB7EE000A80ED150AB7EE000A7D
:100F000080ED160A0448443890ED1B0A10EE101AC2
:100F1000084604F026FE39E0540400200D0A202083
:100F20006163632E63616C692E6F666673657420FE
:100F30003A2020783A256620202020793A2566201C
:100F40002020207A3A2566202020200D0A0000006B
:100F50000D0A20206163632E63616C692E736361E7
:100F60006C65203A2020783A256620202020793AA6
:100F70002566202020207A3A2566202020200D0A90
:100F800000000000000000009A99993E98BB384884
:100F900090ED1C0A10EE101A084604F0E2FD50BB5A
:100FA000334890ED1D0A10EE101A084604F0D9FDE2
:100FB00008BB2F4890ED1B0AB5EEC00AF1EE10FAFF
:100FC00002DD90ED1B0A04E0294890ED1B0AB1EE0A
:100FD000400ADFED280AB4EEE00AF1EE10FA2EDC4A
:100FE000234890ED1C0AB5EEC00AF1EE10FA03DDBD
:100FF00090ED1C0A05E022E01D4890ED1C0AB1EEC0
:10100000400ADFED1C0AB4EEE00AF1EE10FA16DC3D
:10101000174890ED1D0AB5EEC00AF1EE10FA02DD98
:1010200090ED1D0A04E0124890ED1D0AB1EE400A51
:10103000DFED100AB4EEE00AF1EE10FA0CDD1FED60
:101040002F0A0B4880ED1B0A1FED320A80ED1C0AA7
:101050001FED340A80ED1D0A05482030F3EE0E0A1C
:101060009FED050A01F0A4FB05B0BDEC068B00BDA9
:1010700010040020CDCC4C3E6F12833A1CB50124E5
:1010800006F03EFD0F48022100230A02CDE90010C0
:101090000DA1104807F0B0FC0446012C02D10EA0AF
:1010A00004F024FD01F034F803F01CFF03F012F902
:1010B00000F040FC0F48006806F0BCFE06F064FD3E
:1010C0001CBD00000400002073797374656D7469A1
:1010D00070000000FD760008B4B4BDA87379737485
:1010E000656D746970C8CECEF1B3C9B9A6210D0A79
:1010F000000000000000002000B52DED040B2DEDD8
:10110000088B85B0B0EE618A764890ED020ADFED7B
:10111000760A20EE200A7548D0ED3D0A9FED741A3C
:1011200000EE810A6F4880ED020A9DED0D0ADFEDA9
:10113000710A20EE200ABDEEC00AB8EEC00ADFED4B
:101140006E0A20EE200A8DED0D0A9DED0E0ADFEDF0
:10115000690A20EE200ABDEEC00AB8EEC00ADFED33
:10116000660A20EE200A8DED0E0A9DED0F0ADFEDD6
:10117000610A20EE200ABDEEC00AB8EEC00ADFED1B
:101180005E0A20EE200A8DED0F0A584890ED3B0ACA
:10119000DDED0D0A30EE600A80ED410A90ED3C0A6B
:1011A000DDED0E0A30EE600A80ED420A4D4890ED0A
:1011B000020ADDED0F0A30EE600A4C4880ED430A6A
:1011C000D0ED410AB0EE600AF0EE480A203003F09C
:1011D00030FB4A4880ED000A4448D0ED420AB0EEA8
:1011E000600AF0EE480A03F024FB444880ED010A4F
:1011F0003E48D0ED430AB0EE600AF0EE480A4030B7
:1012000003F017FB3D4880ED020A014691ED000A0C
:10121000BDEEC00A10EE100A4FF4FA72514200F00F
:101220007EFB404200EE100AB8EEC00A334880ED63
:10123000000A014691ED010ABDEEC00A10EE100A47
:101240004FF4FA72514200F06AFB00EE100AB8EE59
:10125000C00A2A4880ED010A014691ED020ABDEE5E
:10126000C00A10EE100A4FF49672514200F057FB7C
:1012700000EE100AB8EEC00A204880ED020A1B48B2
:1012800090ED430A10EE101A0846FFF7ADF941EC55
:10129000190B164890ED420A10EE101A0846FFF797
:1012A000A3F941EC1A0B114890ED410A10EE101A07
:1012B0000846FFF799F941EC1B0B8DED029B8DED74
:1012C00000AB53EC1B2B0EA004F010FC0B4890ED70
:1012D000000AD0ED010A90ED021A05B0BDEC088BB2
:1012E0000FBD0000040400206666663FDC0200209B
:1012F000CDCCCC3D0000C8420AD7233CF8030020E7
:101300000D0A202066632E617474496E6E65724505
:1013100072726F7220202020783A256620202020CB
:10132000793A2566202020207A3A25662020202040
:101330000D0A000000B52DED088B8BB09FED700AF3
:10134000B0EE408A00F0BEFE8DED080ACDED090A30
:101350008DED0A1A6B4890ED340ADFED6B0A20EE32
:10136000200ADDED080A9FED691A00EE810A80ED82
:10137000340A90ED350ADFED640A20EE200ADDED37
:10138000090A9FED621A00EE810A80ED350A90EDA0
:10139000360ADFED5D0A20EE200ADDED0A0A9FED38
:1013A0005B1A00EE810A80ED360A90ED340ADFED1B
:1013B000580A20EE200ABDEEC00AB8EEC00ADFEDE2
:1013C000550A20EE200A80ED340A90ED350ADFED53
:1013D000500A20EE200ABDEEC00AB8EEC00ADFEDCA
:1013E0004D0A20EE200A80ED350A90ED360ADFED39
:1013F000480A20EE200ABDEEC00AB8EEC00ADFEDB2
:10140000450A20EE200A80ED360A90ED300AD0ED34
:10141000350A30EE600A80ED440A90ED310AD0EDD5
:10142000340A30EE600A80ED450AD0ED440AB0EE91
:10143000600A803003F0F6F9F7EE000A20EE200A89
:101440008DED050A2F48D0ED450AB0EE600A6030F8
:1014500003F0E8F9F7EE000A20EE200A8DED060A07
:10146000DDED050AB0EE600A9FED2B1ADFED2B0AC9
:1014700000F020FA8DED050ADDED060AB0EE600AF7
:101480009FED251ADFED250A00F014FA8DED060A0E
:101490001C4890ED320A20EE080A8DED070A9DEDFA
:1014A000070A10EE101A0846FFF79EF841EC190BD8
:1014B0009DED060A10EE101A0846FFF795F841EC6C
:1014C0001A0B9DED050A10EE101A0846FFF78CF86E
:1014D00041EC1B0B8DED029B8DED00AB53EC1B2BF8
:1014E0000FA004F003FB9DED071ADDED060A9DED4C
:1014F000050A03F03BFD0BB0BDEC088B00BD0000FE
:101500003333B33EDC0200201F856B3F0AD7A33D77
:101510000000C8420AD7233C00004843000048C3EB
:101520000D0A202020206174744F75746572437415
:101530006C56616C756520202020783A2566202045
:101540002020793A2566202020207A3A256620201E
:10155000200D0A0010B586B0002418216846FEF759
:10156000A4FE6B4618228821762001F07EFB0446FB
:101570009DF800009DF8011040EA012033490880E1
:101580009DF802009DF8031049B240EA01202F495E
:1015900048809DF804009DF8051049B240EA0120FA
:1015A0002A4988809DF806009DF8071040EA01202E
:1015B0002649C8809DF808009DF8091049B240EA04
:1015C0000120224908819DF80A009DF80B1049B2BC
:1015D00040EA01201D4948819DF80C009DF80D103E
:1015E00049B240EA0120194988819DF80E009DF812
:1015F0000F1049B240EA01201449C8819DF810003B
:101600009DF8111049B240EA0120104908829DF866
:1016100012009DF8131049B240EA01200B4948829C
:101620009DF814009DF8151049B240EA01200749C1
:1016300088829DF816009DF8171049B240EA0120F3
:101640000249C882204606B010BD0000C406002032
:1016500070B50025002410E0D021762001F0E0FADA
:101660000446572C03D0582C01D0592C00D107E048
:10167000681C85B2012005F043FBB5F57A7FEBDBF2
:1016800000BFB5F57A7F01D1012070BD0148047714
:101690000020FAE7C40600201CB50121022003F057
:1016A0008BFA1020009001208DF8040000208DF8A6
:1016B000060002208DF805006946124800F076FC0D
:1016C0001021104800F0E8FCFFF7C2FF08B101202C
:1016D0001CBDFFF73FFF08B10320F9E7032000F02E
:1016E00013F808B10420F3E7002000F03BF808B13C
:1016F0000520EDE7002000F023F808B10620E7E719
:101700000020E5E70004024070B5044600250026ED
:10171000032C0FDC0948807F40010849C97F00EB9A
:1017200081002044C5B22A46F421762001F010FB46
:10173000064600E00226304670BD0000C4060020C8
:1017400070B504460025F521762001F069FA0546BA
:10175000284664F3471005462A46F521762001F015
:10176000F7FA70BD70B5044600260025042C3CDC59
:10177000F421762001F054FA0546052C21D2DFE849
:1017800004F003080E141A00012019498877C8775D
:1017900017E00120164988770220C87711E0012060
:1017A000134988770320C8770BE001201049887718
:1017B0000420C87705E002200D4988770520C87706
:1017C00000BF00BF0A48817F284661F347100546E5
:1017D0000748C17F284661F3840005462A46F42164
:1017E000762001F0B5FA064600E00126304670BDCD
:1017F000C406002000B589B00121084603F0DCF9D9
:101800000121082003F0E8F900208DF809008DF887
:101810000A008DF80B0002208DF8080008200190C6
:1018200001A9224800F0C2FB022203211F4800F058
:1018300005FC4FF0FF3007900020ADF82000ADF818
:101840001A008DF822005320ADF8180006A9184898
:1018500003F0BEFF0020ADF80E000120ADF810002F
:101860000020ADF81200ADF814000C20ADF80C000B
:1018700003A90F4803F0F3FD32208DF80000062085
:101880008DF8010000208DF8020001208DF8030082
:10189000684602F0D9FC01221021054803F016FE2B
:1018A0000121034803F0BBFD09B000BD0000024068
:1018B000000C004010B52DED048BB0EE408AF0EE28
:1018C000608AB0EE419A18EE100A04F05FF940B158
:1018D00038EE890AF6EE000A20EE200ABDEC048BF1
:1018E00010BDB4EEE88AF1EE10FA02D2B0EE680A4A
:1018F000F4E7B4EEC98AF1EE10FA02DDB0EE490A5F
:10190000ECE7B0EE480AE9E703468B4201DA084605
:101910007047934201DD1046FAE71846F8E70346A0
:101920008B4201DA08467047934201DD1046FAE720
:101930001846F8E71CB506480A2100234FF48072C8
:10194000CDE9001003A1074807F056F81CBD0000C0
:10195000D4000020666C69676874436F6E74726FA0
:101960006C0000003578000808B53148006840B9BF
:1019700000214FF0804003F052FD00212D4800F07F
:1019800081F82D492B4800F093F870B32A49294873
:1019900000F05EF8274800F080F8A8B927480068F2
:1019A0002349096888420ADA2448006800EB4000AD
:1019B000234A12688118234805F0F4F91AE06021DF
:1019C0002048FEF772FC15E01C48006818490968B9
:1019D00088420BDA1948006800EB4000184A126888
:1019E0008118194805F0DEF904E008E06021164886
:1019F000FEF75BFC11480068401C104908600F4866
:101A000001680B480068801C814210DB69460F4862
:101A1000006806F025FF00214FF0804003F0FFFC36
:101A20000021044800F02EF800200149086008BD9C
:101A300064010020886002400088002060010020CE
:101A40006801002064060020040600205C010020DC
:101A50000246094B9A4201D2084801E00648103874
:101A600001F000531BB1064B0B40C36002E0044B76
:101A70000B40836070470000106402400060024029
:101A80007D0F7D0F21B1026842F00102026003E088
:101A9000026822F0010202607047014600200A68D5
:101AA00002F400220AB1012000E00020704700008B
:101AB00070B50246002000240025124EB24201D229
:101AC000114B01E00F4B103B104E0E4036B11E265D
:101AD00006EAD124166806EA040502E0566906F013
:101AE000800501F000560EB15C6800E01C68084EED
:101AF000344004EA010616B10DB1012000E00020D7
:101B000070BD000010640240006002403C0F3C0FBA
:101B10007D0F7D0F01490860704700000C3C0240BA
:101B200030B10749096841F48061054A116005E058
:101B30000349096821F48061014A1160704700007F
:101B4000003C024070B504460A460026092502B949
:101B500009E0012A01D1160205E0022A01D116028C
:101B600001E04FF4407600F09DF80546092D28D19C
:101B70001548006820F44070134908600846006862
:101B8000304308600846006820F0F8000860084606
:101B9000006844F0020108430B49086008460068E9
:101BA00040F48030086000F07DF805460648006883
:101BB00020F00200044908600846006820F0F800A0
:101BC0000860284670BD0000103C024009201349FF
:101BD000096801F48031B1F5803F01D101201CE09A
:101BE0000E49096801F0100109B1062015E00B4902
:101BF000096801F4807109B102200EE00749096803
:101C000001F0E00109B1072007E00449096801F08B
:101C1000020109B1082000E0092070470C3C024095
:101C20000348006840F00040014908607047000028
:101C3000103C024030B502460C46092500F032F84F
:101C40000546092D17D10D48006820F440700B4956
:101C500008600846006808600846006840F0010017
:101C60000860147000F01EF805460448006820F073
:101C7000010002490860284630BD0000103C0240C7
:101C80000548006800F0004028B1044802490C39BA
:101C90000860034808607047103C02402301674514
:101CA000AB89EFCD08B509200090FFF78FFF0090BA
:101CB00002E0FFF78BFF00909DF800000128F8D0AC
:101CC0009DF8000008BD000001461C48814201D279
:101CD000002070471A48814201D20820F9E71948CC
:101CE000814201D21020F4E71748814201D2182026
:101CF000EFE71648814201D22020EAE714488142EA
:101D000001D22820E5E71348814201D23020E0E7E4
:101D10001148814201D23820DBE71048814201D2CC
:101D20004020D6E70E48814201D24820D1E70D4835
:101D3000814201D25020CCE75820CAE70040000879
:101D40000080000800C00008000001080000020830
:101D500000000408000006080000080800000A0847
:101D600000000C0800000E080246505C7047014657
:101D7000086870472DE9F05F04460D4617464FF09E
:101D800009084FF0000A0026B146B4F1006F02D3F3
:101D9000B4F1016F02D30020BDE8F09FFFF770FFA0
:101DA000F320FFF7B7FE0020FFF7BAFE264604EB4C
:101DB000070913E03046FFF7DAFF401C68B13046F0
:101DC000FFF782FF83460221FFF7BCFE8046B8F191
:101DD000090F03D04FF0000A02E0361D4E45E9D34B
:101DE00000BFB8F1090F17D113E029782046FFF79B
:101DF00021FF092802D04FF0000A0CE02078297852
:101E0000884202D04FF0000A05E04FF0010A641C3E
:101E10006D1C4C45E9D300BF0120FFF781FEFFF7A1
:101E2000FFFE5046B8E710B502F0E8F902F0F8FA04
:101E300002F07EFA18B902F0F3FA02F045FC10BD88
:101E400030B52DED040B2DED0A8B87B000F094F921
:101E50004F4AD2E90032C41A61EB02012046FEF774
:101E6000B7FB9FED4C0B53EC102BFEF7D0FAFEF7AF
:101E7000E7FB08EE100A00F07FF9454A03C2F0EED6
:101E8000481A9DED131ADDED120A9DED110AFFF7B8
:101E900033F9424880ED370AC0ED380A80ED391A2F
:101EA00000F01AF920B93D4890ED330A80ED3A0A66
:101EB0003A4890ED3A0ADFED3A0AB4EEE00AF1EE64
:101EC00010FA0BD29FED370A80ED370A9FED350AE5
:101ED00080ED380A9FED330A80ED390A2F4890EDE6
:101EE0003A0A10EE101A0846FEF77EFB41EC190B79
:101EF0002A4890ED390A10EE101A0846FEF774FBD6
:101F000041EC1A0B254890ED380A10EE101A0846DD
:101F1000FEF76AFB41EC1B0B204890ED370A10EEF0
:101F2000101A0846FEF760FB41EC1C0B8DED049B7C
:101F30008DED02AB8DED00BB53EC1C2B1A4803F06A
:101F4000D5FD164C94ED3A0ABDEEC00A10EE104ACB
:101F500023B2124C94ED390ABDEEC00A10EE104ABD
:101F600022B20E4C94ED380ABDEEC00A10EE104AB3
:101F700021B20A4C94ED370ABDEEC00A10EE104AA9
:101F800020B202F06BF807B0BDEC0A8B3FBD000039
:101F9000F80000208DEDB5A0F7C6B03EDC020020B1
:101FA0000080A2440000000028920008F0B50A4614
:101FB00000210023002400BF3DE0012505FA01F3C4
:101FC000156805EA03049C4234D105684F000326D6
:101FD000BE40B543056015794E00B54006683543EF
:101FE00005601579012D02D01579022D16D185686D
:101FF0004F000326BE40B543856055794E00B5407D
:10200000866835438560456801268E40B543456046
:10201000456896798E40B6B235434560C5684F0035
:102020000326BE40B543C560D5794E00B540C668AD
:102030003543C560491C1029BFD3F0BDF0B500235E
:1020400000244D07ED0E02FA05F3CE1000F1200535
:1020500055F826504E07F70E0F26BE40B543CF1059
:1020600000F1200646F82750CE1000F1200555F863
:10207000265045EA0304CE1000F1200545F826401D
:10208000F0BD0246002013690B400BB1012000E0B7
:1020900000207047418370470183704742694A407E
:1020A0004261704710B5682000F046FA00F06AFC03
:1020B000FFF7F2FA012010BD014880787047000058
:1020C00090020020034890ED000AD0ED010A90ED47
:1020D000021A7047EC0500200148C07970470000E3
:1020E00090020020014890ED030A70475C05002033
:1020F00002490A6802604968416070475201002045
:1021000002490A680260496841607047DC000020AB
:102110001CB50B480D2100234FF48072CDE900104F
:1021200008A10C4806F068FC0B48082100234A016E
:10213000CDE9001009A10D4806F05EFC1CBD0000B1
:10214000B4000020696D7553656E736F72526561DE
:102150006400000089790008B800002073656E7380
:102160006F7255706461746500000000717D000835
:1021700010B506F081FC10BD2DE9F04706F07CFC9F
:10218000002504464FF0E02040694FF0E0218969C6
:10219000401A4FF47A7148434FF0E0214969B0FB8F
:1021A000F1F000214FF47A7CA046A8FB0C2A05FB35
:1021B0000CA304FB0133861841EB03073046394674
:1021C000BDE8F08773B52DED040B04460D4623489A
:1021D0009DE80E000EC00C3890ED000AD0ED0F0AFD
:1021E00030EE600AD0ED120A20EE200A80ED000ADF
:1021F00090ED010AD0ED100A30EE600AD0ED130A1E
:1022000020EE200A80ED010A90ED020AD0ED110ABD
:1022100030EE600AD0ED140A20EE200A80ED020AAA
:1022200090ED021AD0ED010A90ED000A183000F08E
:102230005FFA0A4880ED030AC0ED040A80ED051A32
:102240000246D2E900109268C4E901022160034A03
:102250000C3207CA85E8070006B070BDF8040020FC
:1022600000B52DED068B85B004228049022002F0D6
:1022700049FB04227D49091D032002F043FB04228F
:102280007A490831104602F03DFB042277490C31AF
:10229000052002F037FB042274491031062002F0B9
:1022A00031FB042271491431072002F02BFB6F48E7
:1022B0003C3890ED110A10EE101A0846FEF794F91A
:1022C00041EC180B69483C3890ED100A10EE101ADA
:1022D0000846FEF789F941EC190B64483C3890ED4B
:1022E0000F0A10EE101A0846FEF77EF941EC1A0BA1
:1022F0008DED028B8DED009B53EC1A2B5CA003F04F
:10230000F5FB5A483C3890ED0F0A10EE101A0846BB
:1023100003F02EFC98B955483C3890ED100A10EEA9
:10232000101A084603F024FC48B950483C3890ED98
:10233000110A10EE101A084603F01AFC68B19FED5E
:10234000590A4A483C3880ED0F0A9FED560A80ED45
:10235000100A9FED540A80ED110A44483C3890ED74
:10236000120AF7EE000A30EE600AB5EEC00AF1EE8E
:1023700010FA06DD90ED120AF7EE000A30EE600A60
:1023800009E03A483C3890ED120AF7EE000A30EEC8
:10239000600AB1EE400ADFED440AB4EEE00AF1EE65
:1023A00010FA49DC31483C3890ED130AF7EE000A88
:1023B00030EE600AB5EEC00AF1EE10FA06DD90EDDF
:1023C000130AF7EE000A30EE600A09E027483C38AD
:1023D00090ED130AF7EE000A30EE600AB1EE400A03
:1023E000DFED310AB4EEE00AF1EE10FA24DC1F480A
:1023F0003C3890ED140AF7EE000A30EE600AB5EEB4
:10240000C00AF1EE10FA06DD90ED140AF7EE000AAC
:1024100030EE600A09E015483C3890ED140AF7EEFA
:10242000000A30EE600AB1EE400ADFED1F0AB4EE9A
:10243000E00AF1EE10FA0DDDB7EE000A0B483C3869
:1024400080ED120AB7EE000A80ED130AB7EE000A1B
:1024500080ED140A05482438DFED140A9FED140AB4
:1024600000F0A6F905B0BDEC068B00BD34050020D8
:102470000D0A202020206779726F2E63616C692E0F
:102480006F666665743A2020783A25662020202001
:10249000793A2566202020207A3A256620202020BF
:1024A0000D0A000000000000CDCCCC3D0000B04281
:1024B0006F12833A10B540210A48FFF7EBFD8021E7
:1024C0000848FFF7E7FD022000F030F840210548FA
:1024D000FFF7E2FD022000F029F840210148FFF754
:1024E000D9FD10BD000402401CB50121022002F0FC
:1024F00063FBC020009002208DF8050001208DF8BC
:1025000004008DF8060000208DF807006946064893
:10251000FFF74CFD40210448FFF7BEFD8021024833
:10252000FFF7BAFD1CBD00000004024010B50446D0
:10253000204604F007FC10BD20B50546FFF7D4FF88
:1025400000F07AF8204620BD10B540210A48FFF778
:10255000A1FD80210848FFF79FFD0220FFF7E6FF5D
:1025600040210548FFF798FD0220FFF7DFFF4021DB
:102570000148FFF78FFD10BD0004024070B505460D
:102580000024002618E040211048FFF783FD0220B8
:10259000FFF7CCFF40210D48FFF77EFD6006040EDB
:1025A00080210A48FFF76DFD08B1601CC4B201200C
:1025B000FFF7BCFF701CC6B2082EE4DB15B9FFF7AD
:1025C000C3FF01E0FFF776FF204670BD0004024024
:1025D00070B5044640211748FFF75CFD002526E052
:1025E00004F0800020B180211248FFF755FD03E080
:1025F00080211048FFF74EFD0220FFF797FF402192
:102600000C48FFF749FD0220FFF790FF40210948E1
:10261000FFF740FD072D03D180210648FFF73CFD61
:102620006006040E0220FFF781FF681CC5B2082D6A
:10263000D6DB70BD0004024010B580210A48FFF7C8
:102640002BFD40210848FFF727FD0420FFF76EFF10
:1026500080210548FFF71EFD0420FFF767FF40219A
:102660000148FFF717FD10BD0004024010B54021DE
:102670000A48FFF70FFD80210848FFF70BFD0420F3
:10268000FFF754FF40210548FFF706FD802103486E
:10269000FFF702FD0420FFF749FF10BD00040240D0
:1026A00010B5002480211148FFF7F6FC0120FFF748
:1026B0003DFF40210D48FFF7EFFC0120FFF736FFFB
:1026C00007E0601CC4B2FA2C03DDFFF7CFFF012046
:1026D00010BD80210548FFF7D4FC0028F1D140212E
:1026E0000248FFF7D7FC0020F2E700000004024098
:1026F00001B52DED040B83B09DED030AD0ED000A6A
:1027000020EE200AD0ED060A90ED011A00EE810AB3
:10271000D0ED030A90ED021A00EEC10A8DED000A19
:102720009DED040AD0ED000A20EE200AD0ED070A44
:1027300090ED011A00EE810AD0ED040A90ED021A24
:1027400000EEC10A8DED010A9DED050AD0ED000AEB
:1027500020EE200AD0ED080A90ED011A00EE810A61
:10276000D0ED050A90ED021A00EEC10A8DED020AC5
:1027700090ED060A80ED030A90ED070A80ED040A49
:1027800090ED080A80ED050A9DED000A80ED060A2D
:102790009DED010A80ED070A9DED020A80ED080A11
:1027A0009DED000ADDED010A9DED021A08B000BDA5
:1027B000B0EE401ADFED221A60EEA11A61EE811A26
:1027C000B7EE002AC2EE212AB0EE620A60EE001ACD
:1027D000B0EE082A42EE001AB7EE002A71EE821A15
:1027E000B7EE002AC2EE212AC0ED002AF0EE001A50
:1027F00060EE211A61EE801AB0EE082A42EE001A4D
:1028000020EE002AF0EE082A02EE802AF7EE002AD7
:1028100032EE222AC1EE822AC0ED012A60EE001AB1
:10282000B0EE082A42EE001AB7EE002A71EE821AC4
:1028300020EE002AC2EE212AC0ED022A70470000D5
:10284000DB0FC9401CB50121042002F0B5F90220BC
:102850008DF8040003208DF8050000208DF8060097
:102860008DF807004FF48070009069461548FFF717
:102870009DFB022209211348FFF7E0FB4FF4007093
:10288000009069460F48FFF791FB022208210D488E
:10289000FFF7D4FB8020009069460A48FFF786FBCB
:1028A000022207210748FFF7C9FB40200090694634
:1028B0000448FFF77BFB022206210248FFF7BEFB1C
:1028C0001CBD00000008024010B5FFF7BBFF00F080
:1028D00001F810BD00B589B00121022002F07CF999
:1028E00040F2CF7007900020ADF82000ADF81A003C
:1028F0008DF822005320ADF8180006A9204802F0F8
:1029000067FF6020ADF804000120ADF80600042048
:10291000ADF8080000200390ADF810004FF480706F
:10292000ADF814000020ADF8160001A9144802F01B
:102930007FFE0821124802F0CBFE01A9104802F0E8
:10294000D1FE08210E4802F009FF01A90C4802F04F
:102950000FFE08210A4802F05DFE01A9084802F0B6
:10296000BFFD0821064802F0F9FD0121044802F0EC
:1029700056FD0121024802F043FD09B000BD0000F0
:10298000000400401CB500240121022002F014F9CB
:102990002820009001208DF8040000208DF806000A
:1029A00002208DF8050069462E48FFF7FFFA202126
:1029B0002C48FFF771FB08212A48FFF76BFB8022A8
:1029C0006B21682000F0C4F9642004F099F900221A
:1029D0006B21682000F0BCF9032000F074F902209C
:1029E00000F068F94FF47A7000F094F90022382171
:1029F000682000F0ADF900226A21682000F0A8F9F3
:102A000000222321682000F0A3F9822237216820C8
:102A100000F09EF97521682000F002F90446712C3F
:102A20000AD101226B21682000F092F900226C216A
:102A3000682000F08DF901E003201CBD00210C206E
:102A400000F0EEF80446482C08D111220A210C208F
:102A500000F07EF9642004F053F901E00120ECE776
:102A60000020EAE7000402407FB5044602AB0622DC
:102A70003B21682000F0F9F80546EDBB9DF8090000
:102A80009DF8081040EA012000B2ADF800009DF862
:102A90000B009DF80A1040EA012000B2ADF80200D8
:102AA0009DF80D009DF80C1040EA012000B2ADF831
:102AB0000400BDF9000000EE100AB8EEC00ADFED18
:102AC000110A20EE200A84ED000ABDF9020000EE92
:102AD000100AB8EEC00ADFED0B0A20EE200A84EDE2
:102AE000010ABDF9040000EE100AB8EEC00ADFEDDD
:102AF000050A20EE200A00E001E084ED020A2846E3
:102B000004B070BDD5FF7F397FB5044602AB062205
:102B10004321682000F0A9F80546EDBB9DF80900A7
:102B20009DF8081040EA012000B2ADF800009DF8C1
:102B30000B009DF80A1040EA012000B2ADF8020037
:102B40009DF80D009DF80C1040EA012000B2ADF890
:102B50000400BDF9000000EE100AB8EEC00ADFED77
:102B6000110A20EE200A84ED000ABDF9020000EEF1
:102B7000100AB8EEC00ADFED0B0A20EE200A84ED41
:102B8000010ABDF9040000EE100AB8EEC00ADFED3C
:102B9000050A20EE200A00E001E084ED020A284642
:102BA00004B070BDEF01FA3C1CB56B460622032150
:102BB0000C2000F05AF804462CBB9DF800009DF84C
:102BC000011040EA012000B2144948809DF802003B
:102BD0009DF8031040EA012000B2104908809DF8DA
:102BE00004009DF8051040EA012000B20B498880DE
:102BF0000846008808800846408848800846808843
:102C0000404200B2888011220A210C2000F0A0F876
:102C1000052004F097F820461CBD0000700100203C
:102C200070B504460D460026FFF706FD002141EA77
:102C30004401C8B2FFF7CCFCFFF732FD2846FFF78E
:102C4000C7FCFFF72DFDFFF7F7FC012101EB440165
:102C5000C8B2FFF7BDFCFFF723FD0020FFF78EFC95
:102C60000646FFF703FD304670BD2DE9F0410646EC
:102C70000F4614461D46FFF7DFFC002141EA4601DE
:102C8000C8B2FFF7A5FCFFF70BFD20B1FFF7EEFC84
:102C90000120BDE8F08109E039467A1CD7B2304600
:102CA000FFF7BEFF05F8010B601EC4B2002CF3D184
:102CB0000020EEE710B50446E006020E1C21682055
:102CC00000F046F810BD10B50446E006020E1B21C8
:102CD000682000F03DF810BD70B504460025BC2CFE
:102CE00001DB012510E0622C01DB02250CE02A2C1F
:102CF00001DB032508E0142C01DB042504E00A2C89
:102D000001DB052500E006252A461A21682000F08F
:102D10001FF870BD70B50446B4F57A7F01DD4FF43D
:102D20007A74042C00DA04244FF47A7090FBF4F0E7
:102D3000401EC5B22A461921682000F009F8054650
:102D4000264604EBD671C1F34F00FFF7C5FF70BDF7
:102D500070B504460D461646FFF76EFC002141EAA9
:102D60004401C8B2FFF734FCFFF79AFC18B1FFF733
:102D70007DFC022070BD2846FFF72AFCFFF790FC7F
:102D80003046FFF725FCFFF78BFC18B1FFF76EFC10
:102D90000120EFE7FFF76AFC0020EBE700B52DED1F
:102DA000068B85B00422CF490E2001F0ABFD042232
:102DB000CC49091D0F2001F0A5FD0422C9490831A5
:102DC000102001F09FFD0422C6490C31112001F0B2
:102DD00099FD0422C3491031122001F093FD042211
:102DE000C0491431132001F08DFD0422BD491C316E
:102DF000142001F087FDBB48103890ED040A10EE56
:102E0000101A084602F0BBFE002874D1B5481038ED
:102E100090ED050A10EE101A084602F0B0FE0028E8
:102E2000F3D1B048103890ED060A10EE101A08469B
:102E300002F0A5FE00285ED1AA48103890ED070ADE
:102E400010EE101A084602F09AFE002853D1A54849
:102E5000103890ED080A10EE101A084602F08FFEA6
:102E6000002848D19F48103890ED090A10EE101A3A
:102E7000084602F084FE00283DD19A48103890EDB3
:102E8000070AB5EEC00AF1EE10FA02DD90ED070A6E
:102E900005E09448103890ED070AB1EE400ADFEDE6
:102EA000920AB4EEE00AF1EE10FA24D38D481038FD
:102EB00090ED070AB5EEC00AF1EE10FA02DD90EDD2
:102EC000070A05E08748103890ED070AB1EE400A7E
:102ED000F0EE000AB4EEE00AF1EE10FA7BDC814875
:102EE000103890ED080AB5EEC00AF1EE10FA03DDD5
:102EF00090ED080A06E06EE07A48103890ED080A76
:102F0000B1EE400ADFED780AB4EEE00AF1EE10FA15
:102F100061D37448103890ED080AB5EEC00AF1EE9E
:102F200010FA02DD90ED080A05E06E48103890EDC9
:102F3000080AB1EE400AF0EE000AB4EEE00AF1EE43
:102F400010FA48DC6748103890ED090AB5EEC00A5F
:102F5000F1EE10FA02DD90ED090A05E06148103843
:102F600090ED090AB1EE400ADFED5F0AB4EEE00A27
:102F7000F1EE10FA2FD35B48103890ED090AB5EE48
:102F8000C00AF1EE10FA02DD90ED090A05E055489D
:102F9000103890ED090AB1EE400AF0EE000AB4EEE6
:102FA000E00AF1EE10FA16DC4E48103890ED070AF0
:102FB000B5EEC00AF1EE10FA0DD090ED080AB5EEAC
:102FC000C00AF1EE10FA06D090ED090AB5EEC00A7B
:102FD000F1EE10FA1DD19FED450A4248103880ED00
:102FE000040A9FED420A80ED050A9FED400A80ED3C
:102FF000060AB7EE000A80ED070AB7EE000A80ED78
:10300000080AB7EE000A80ED090A9FED390A80ED43
:103010000B0A3448103890ED060A10EE101A0846D4
:10302000FDF7E2FA41EC180B2E48103890ED050A36
:1030300010EE101A0846FDF7D7FA41EC190B294893
:10304000103890ED040A10EE101A0846FDF7CCFA7D
:1030500041EC1A0B8DED028B8DED009B53EC1A2B7E
:1030600024A002F043FD1F48103890ED090A10EE2D
:10307000101A0846FDF7B8FA41EC180B1948103839
:1030800090ED080A10EE101A0846FDF7ADFA41EC73
:10309000190B1448103890ED070A10EE101A084664
:1030A000FDF7A2FA41EC1A0B8DED028B8DED009B22
:1030B00053EC1A2B1CA002F019FD0A48103890EDB1
:1030C0000B0A10EE101A0846FDF78EFA41EC180BA9
:1030D00053EC182B21A002F009FD05B0BDEC068BC6
:1030E00000BD00006C0500209A99993E0000000088
:1030F000CDCCCC3E0D0A20206D61672E63616C69DA
:103100002E6F6666736574203A2020783A25662013
:10311000202020793A2566202020207A3A25662032
:103120002020200D0A0000000D0A20206D61672E6E
:1031300063616C692E7363616C65203A2020783A74
:10314000256620202020793A2566202020207A3A02
:103150002566202020200D0A000000000D0A2020F6
:103160006D61672E65617274684D61673A20202039
:103170002566202020200D0A000000000EB56846BC
:1031800000F056F89DED000A2148D0ED040A30EE1B
:10319000600AD0ED070A20EE200A80ED000A9DEDBE
:1031A000010AD0ED050A30EE600AD0ED080A20EEE3
:1031B000200A80ED010A9DED020AD0ED060A30EEEC
:1031C000600AD0ED090A20EE200A80ED020AD0ED57
:1031D000021AB0EE611AD0ED011AF0EE610AD0EDDC
:1031E000001AB0EE610A01F0C5FC094890ED0B1A17
:1031F000C0EE010A9FED070A20EE800AD0ED030A17
:103200009FED051A00EE810A80ED030A0EBD000055
:103210005C0500200AD7233CA4707D3F034890ED55
:10322000000AD0ED010A90ED021A70475C050020FB
:103230001349B1F9001000EE101AB8EEC00ADFED24
:10324000110A20EE200A80ED000A0D49B1F90210A2
:1032500000EE101AB8EEC00ADFED0A0A20EE200ACE
:1032600080ED010A0649B1F9041000EE101AB8EE1B
:10327000C00ADFED040A20EE200A80ED020A704742
:10328000700100209A99193E00B52DED108B9DB06C
:10329000F0EE409AB0EE60AAF0EE41AAF0EE61CAFC
:1032A000B0EE42BAF0EE62BAB0EE43CAB0EE638A54
:1032B000F0EE448AFE4890ED000AD0ED000A20EEC0
:1032C000200A8DED0C0A90ED000AFA48D0ED000AB4
:1032D00020EE200A8DED0B0AF54890ED000AF64825
:1032E000D0ED000A20EE200AB0EE40EAF04890ED62
:1032F000000AF248D0ED000A20EE200A8DED0A0AFD
:10330000EC4890ED000AD0ED000A20EE200AF0EE25
:1033100040EA90ED000AE848D0ED000A20EE200ACD
:103320008DED090AE34890ED000AE448D0ED000A6B
:1033300020EE200AB0EE40FADF4890ED000AD0ED12
:10334000000A20EE200AB0EE40DA90ED000ADB48D9
:10335000D0ED000A20EE200A8DED080A90ED000A5B
:10336000D0ED000A20EE200AF0EE40DA9FEDD40AFC
:1033700029EE800AF0EE409A9FEDD10A2AEE000A6B
:10338000B0EE40AA9FEDCE0A2AEE800AF0EE40AAE7
:10339000B5EEC0CAF1EE10FA1BD1B5EEC08AF1EE5F
:1033A00010FA16D1F5EEC08AF1EE10FA11D1F0EE56
:1033B0006B2AB0EE4B2AF0EE6C1AB0EE6A1AF0EE01
:1033C0004A0AB0EE690A00F087FB1DB0BDEC108B15
:1033D00000BDF5EEC0CAF1EE10FA09D1B5EEC0BAE3
:1033E000F1EE10FA04D1F5EEC0BAF1EE10FA7DD08C
:1033F0006CEEAC0A4BEE0B0A4BEEAB0AB0EE600A79
:1034000002F003FFB0EE409A8CEE890AF0EE40CA5B
:103410008BEE090AB0EE40BA8BEE890AF0EE40BAA4
:103420006CEE0C0A48EE080A48EEA80AB0EE600AF4
:1034300002F0EBFEB0EE409A8CEE090AB0EE40CA04
:1034400088EE090AB0EE408A88EE890AF0EE408ADA
:10345000974890ED000AD0ED000A20EE200A8DED8D
:103460000C0A90ED000A9348D0ED000A20EE200AE5
:103470008DED0B0A8E4890ED000A8F48D0ED000AC2
:1034800020EE200AB0EE40EA894890ED000A8B4811
:10349000D0ED000A20EE200A8DED0A0A854890ED55
:1034A000000AD0ED000A20EE200AF0EE40EA90ED8E
:1034B000000A8148D0ED000A20EE200A8DED090AAD
:1034C0007C4890ED000A7D48D0ED000A20EE200AED
:1034D000B0EE40FA784890ED000AD0ED000A20EEF8
:1034E000200AB0EE40DA90ED000A00E0ACE173484B
:1034F000D0ED000A20EE200A8DED080A90ED000ABA
:10350000D0ED000A20EE200AF0EE40DAB6EE000A16
:1035100030EE4D0A30EE6D0A20EE0C0ADDED090AA0
:103520009DED0A1A70EEC10A08EE200A7FEE0E0A1F
:1035300008EEA00AF0EE000A20EE200A8DED1B0A2C
:103540009DED090ADDED0A0A30EE200A20EE0C0A94
:10355000F6EE000A70EEEE0A70EEED0A08EE200AB2
:10356000DDED080A9DED0B1A70EEC10A08EEA00A07
:10357000F0EE000A20EE200A8DED1A0A9DED1B0ADE
:1035800060EE000A9DED1A0A40EE000A10EE901A55
:103590000846FDF729F8CDE904019DED040B02F082
:1035A000F7FD8DED060B9DED060B51EC100BFDF7B5
:1035B00047F819903FEE4E0A20EE0C0ADDED080A9E
:1035C0009DED0B1A70EE810A08EE200AF6EE000A55
:1035D00070EEEE0A70EECD0A08EEA00AF0EE000AD8
:1035E00020EE200A8DED180A7FEE4EFA9DED0B0AB3
:1035F000DDED080A30EE200A8DED170A9DED0C0A6C
:10360000F6EE000A30EE600A30EE2D0A8DED160A55
:10361000B6EE000A30EE4D0A70EE6D0A9DED190A05
:1036200060EE800A3FEE4E1A9DED180A40EE010A48
:10363000CDED150A9DED090ADDED0A0A70EE600A6E
:103640009DED190A60EE800A9DED0B0A9DED081AAA
:1036500030EE011A9DED180A40EE010ACDED140A74
:103660007EEE0F0A9DED190A60EE800AB6EE000AA2
:1036700030EE6E0A30EE4D1A9DED180A40EE010A4A
:10368000CDED130AFEF72EFDF0EE000AB4EEE00ACF
:10369000F1EE10FA25DD9DED160A2BEE000ADDEDA8
:1036A000170A0BEEE00A8DED120A2BEEAF0A09E0C5
:1036B0002C010020300100203401002038010020BE
:1036C00034FA8E3CDDED160A0CEEE00A8DED110A9F
:1036D0009DED170A2CEE800A0BEE6F0A8DED100A95
:1036E00037E09DED160A6BEE000A9DED170A4BEED2
:1036F000C00A9DED130A28EE001A9DED140A08EE8B
:10370000C01A30EE810A8DED120A2BEEAF0ADDED04
:10371000160A0CEEE00ADDED150A28EEA01ADDED22
:10372000130A0CEE601A30EE010A8DED110A9DEDC0
:10373000170A6CEE800A4BEE6F0A9DED140A2CEE10
:10374000001A9DED150A08EE401A30EE810A8DED43
:10375000100AD14890ED000AB5EEC00AF1EE10FA59
:1037600044DDD0ED000A9DED120A60EE800ACB48E0
:1037700090ED000A9FEDCA1A00EE810A80ED000A62
:10378000C548D0ED000A9DED110A60EE800AC548DB
:1037900090ED000A9FEDC21A00EE810A80ED000A4A
:1037A000BD48D0ED000A9DED100A60EE800ABE48CB
:1037B00090ED000A9FEDBA1A00EE810A80ED000A32
:1037C000B64890ED000A39EE800AF0EE409AB5480E
:1037D00090ED000A3AEE000AB0EE40AAB24890ED31
:1037E000000A3AEE800AF0EE40AA0EE09FEDAF0A22
:1037F000AA4880ED000A9FEDAD0AAA4880ED000AB4
:103800009FEDAA0AA84880ED000AA94890ED001A89
:103810009DED120AF0EE690A41EE000AF0EE609AA0
:1038200090ED001A9DED110AF0EE4A0A41EE000AF1
:10383000B0EE60AA90ED001A9DED100AF0EE6A0A53
:1038400041EE000AF0EE60AA9FED9A0A29EE800A86
:10385000F0EE409A9FED970A2AEE000AB0EE40AAD9
:103860009FED940A2AEE800AF0EE40AA924890ED6D
:10387000000A8DED0F0A914890ED000A8DED0E0AB9
:103880008F4890ED000A8DED0D0A9DED0E0AB1EE08
:10389000400A60EE290A9DED0D0A40EE4A0A894869
:1038A00090ED000A40EE6A0A834890ED000A30EE7F
:1038B000800A80ED000A9DED0F0A60EE290A9DED59
:1038C0000D0A40EE2A0A7F4890ED000A40EE4A0AAF
:1038D0007A4890ED000A30EE800A80ED000A9DEDF6
:1038E0000F0A60EE0A0A9DED0E0A40EE6A0A75485C
:1038F00090ED000A40EE290A714890ED000A30EE82
:10390000800A80ED000A9DED0F0A20EE2A0ADDED07
:103910000E0A00EE8A0ADDED0D0A00EEE90A69489A
:10392000D0ED000A30EE200A80ED000ADDED0C0A31
:1039300070EEAE0A70EE8D0A70EEAD0AB0EE600A5F
:1039400002F063FCB0EE409A5B4890ED000AC0EED6
:10395000090AC0ED000A594890ED000AC0EE090AB4
:10396000C0ED000A564890ED000AC0EE090AC0ED0D
:10397000000A544890ED000AC0EE090AC0ED000AA2
:10398000DDED0B0A9DED081A70EE810AB0EE001A0B
:1039900060EE810AB0EE600A02F000F9DFED4A0A3B
:1039A00020EE200A494880ED000A9DED0C0A30EE19
:1039B0006E0A30EE4D0A30EE2D0A10EE101A08464F
:1039C000FCF712FE3FEE4E0AF8EE000A20EE200A47
:1039D000CDE9020110EE101A0846FCF705FECDE90C
:1039E00000019DED021B9DED000B02F0D9FA8DED5B
:1039F000040B9FED370B53EC102B9DED040B51EC9A
:103A0000100BFCF704FDCDE906019DED060B51EC12
:103A1000100BFCF715FE2D4948609DED0C0A30EEA9
:103A20006E0A30EE0D0A30EE6D0A10EE101A0846DE
:103A3000FCF7DAFDCDE902019DED090ADDED0A0A88
:103A400030EE600AF0EE000A20EE200A10EE101AA6
:103A50000846FCF7C9FDCDE900019DED021B9DED77
:103A6000000B02F09DFA8DED040B9FED190B53EC4A
:103A7000102B9DED040B51EC100BFCF7C8FCCDE9AD
:103A800006019DED060B51EC100BFCF7D9FD0F491B
:103A9000886000BF99E40000280100203C0100205C
:103AA0000AD7A33C40010020440100200000000090
:103AB000240100200AD7233C2C01002030010020E3
:103AC000340100203801002033336542EC0500202A
:103AD0000000006066A64C4000B52DED108B93B041
:103AE000B0EE408AF0EE608AB0EE419AB0EE61BA74
:103AF000B0EE42AAF0EE62AAFE4890ED000AD0EDC8
:103B0000000A20EE200AB0EE40DA90ED000AFA48F2
:103B1000D0ED000A20EE200A8DED0F0AF54890ED59
:103B2000000AF648D0ED000A20EE200A8DED0E0ABC
:103B3000F04890ED000AF248D0ED000A20EE200A8D
:103B40008DED0D0AEC4890ED000AD0ED000A20EE54
:103B5000200A8DED0C0A90ED000AE848D0ED000A2D
:103B600020EE200A8DED0B0AE34890ED000AE448B0
:103B7000D0ED000A20EE200A8DED0A0ADF4890ED14
:103B8000000AD0ED000A20EE200A8DED090A90ED22
:103B9000000ADB48D0ED000A20EE200A8DED080A6D
:103BA00090ED000AD0ED000A20EE200AF0EE40DA97
:103BB0009FEDD40A28EE000AB0EE408A9FEDD10AAC
:103BC00028EE800AF0EE408A9FEDCE0A29EE000A28
:103BD000B0EE409AB5EEC0BAF1EE10FA09D1B5EEEA
:103BE000C0AAF1EE10FA04D1F5EEC0AAF1EE10FA77
:103BF0007ED06BEE0B0A4AEE0A0A4AEEAA0AB0EE33
:103C0000600A02F002FBF0EE409AB0EE690ACBEED9
:103C1000000AB0EE60BAB0EE690ACAEE000AB0EE71
:103C200060AAB0EE690ACAEE800AF0EE60AA9DEDC5
:103C30000A0ADDED0E0A30EE60EA9DED0F0ADDEDB9
:103C4000080A70EE20EAB6EE000A3DEE400A30EEB9
:103C50002DFA2AEE0F0AF0EE40FA4AEEEEFA2AEEBC
:103C60008E0A0BEE4F0A8DED110A2BEE2E0A0AEE8C
:103C70004E0A8DED100AA44890ED000AB5EEC00A78
:103C8000F1EE10FA44DD90ED000A60EE2F0A9F4835
:103C900090ED000A9FED9E1A00EE810A80ED000A69
:103CA0009948D0ED000A9DED110A60EE800A99480E
:103CB00090ED000A9FED961A00EE810A80ED000A51
:103CC0009148D0ED000A9DED100A60EE800A9248FE
:103CD00090ED000A9FED8E1A00EE810A80ED000A39
:103CE0008A4890ED000A38EE000AB0EE408A00E003
:103CF0003AE0884890ED000A38EE800AF0EE408AFB
:103D0000854890ED000A39EE000AB0EE409A0EE0C8
:103D10009FED820A7D4880ED000A9FED800A7D4874
:103D200080ED000A9FED7D0A7B4880ED000A7C480B
:103D3000D0ED000AB0EE480A00EEAF0AB0EE408ABD
:103D400090ED001A9DED110AF0EE680A41EE000AAE
:103D5000F0EE608A90ED001A9DED100AF0EE490A2F
:103D600041EE000AB0EE609A9FED6E0A28EE000A5E
:103D7000B0EE408A9FED6B0A28EE800AF0EE408A92
:103D80009FED680A29EE000AB0EE409A5948D0ED3E
:103D900000BA594890ED00CA5848D0ED00CAB1EEBB
:103DA0004C0A20EE080A0CEEE80A5548D0ED000A4D
:103DB00000EEC90A4F48D0ED000A30EE200A80ED2F
:103DC000000A2BEE880A0CEE890A4D48D0ED000A55
:103DD00000EEE80A4848D0ED000A30EE200A80EDF7
:103DE000000A2BEEA80A0CEE490A4548D0ED000A5D
:103DF00000EE880A4148D0ED000A30EE200A80ED3E
:103E0000000A2BEE890A0CEE280A0CEEC80A3C4880
:103E1000D0ED000A30EE200A80ED000ADDED0C0A3C
:103E20003DEE201ADDED090A71EE200A70EEAD0AB2
:103E3000B0EE600A02F0E9F9F0EE409A2D4890EDFC
:103E4000000AC0EE290AC0ED000A2B4890ED000AD6
:103E5000C0EE290AC0ED000A284890ED000AC0EE25
:103E6000290AC0ED000A264890ED000AC0EE290A92
:103E7000C0ED000ADDED0F0A9DED081A70EE810A13
:103E8000B0EE001A60EE810AB0EE600A01F086FE24
:103E9000DFED250A20EE200A244880ED000A9DED82
:103EA0000C0A7DEE400A9DED090A30EEC00A30EEA4
:103EB0002D0A10EE101A0846FCF796FBCDE9020118
:103EC0009DED0A0ADDED0E0A30EE600AF8EE000AFA
:103ED00020EE200A10EE101A0846FCF785FBCDE90B
:103EE00000019DED021B9DED000B02F059F88DEDD8
:103EF000040B1DE02C0100203001002034010020C3
:103F00003801002034FA8E3C280100203C010020BA
:103F10000AD7A33C4001002044010020000000001B
:103F2000240100200AD7233C33336542EC050020EE
:103F30009FED2A0B53EC102B9DED040B51EC100B55
:103F4000FCF765FACDE906019DED060B51EC100B6F
:103F5000FCF776FB234948609DED0C0A7DEE400A94
:103F60009DED090A30EE800A30EE6D0A10EE101A4F
:103F70000846FCF739FBCDE902019DED0B0ADDEDAA
:103F80000D0A30EE600AF0EE000A20EE200A10EE74
:103F9000101A0846FCF728FBCDE900019DED021B35
:103FA0009DED000B01F0FCFF8DED040B9FED0B0B65
:103FB00053EC102B9DED040B51EC100BFCF727FA82
:103FC000CDE906019DED060B51EC100BFCF738FB1B
:103FD0000449886013B0BDEC108B00BD0000006088
:103FE00066A64C40EC05002007B5BDF9040000EEC4
:103FF000100AB8EEC00A82ED020ABDF9060000EE12
:10400000100AB8EEC00A82ED030A0EBD10B50022F8
:104010000421022004F0CCF90F4948600022042159
:10402000022004F0C5F90C49086000220421022096
:1040300004F0BEF90849886000220421022004F03F
:10404000B7F90549C86000220421022004F0B0F944
:104050000149086110BD0000A80200202DE9F843C5
:1040600005460E4617469846002442E0524800EBAB
:104070000410D0ED000A00EE108AB8EEC00A60EE1F
:10408000800A4D4800EB041090ED011A00EE105A22
:10409000F8EEC01AB0EE600A01EE810A464800EB65
:1040A000041090ED021A00EE906AF8EEE00A00EEBD
:1040B000810A414800EB041090ED031A00EE907A5B
:1040C000F8EEE00A00EE810ABDEEC00A10EE100A1A
:1040D00000B23A4921F8140031F9140040F26C7230
:1040E00040F24C41FDF710FC344921F81400601CEB
:1040F000C4B23148001F90F90000A042B6DC2F483E
:10410000B0F90090FDF7D8FF012818D100240FE086
:104110002A4A32F8142091B2621CD0B200F078F82A
:10412000264830F81400264921F81400601CC4B257
:104130002148001F90F90000A042E9DC2BE0002498
:1041400023E01F4830F9140000EE100AB8EEC00A50
:104150001B4830F9140000EE900AF8EEE00A9FEDDB
:10416000191A00EEC10ABDEEC00A10EE100A00B224
:10417000134921F814000A4632F8142091B2621C47
:10418000D0B200F045F8601CC4B20B48001F90F993
:104190000000A042D5DC0948B0F9060000900748AD
:1041A000B0F90430B0F90220B0F9001006A001F017
:1041B0009DFCBDE8F8830000B48E0008BC0200201E
:1041C000CC020020A69B443B0D0A20206D6F746F2B
:1041D0007250574D20202020313A25642020202085
:1041E000323A256420202020333A256420202020E4
:1041F000343A256420200D0A0000000010B5012289
:104200000249242000F07EFB10BD0000F0000020D9
:10421000012802D10A4A116010E0022803D1084A9D
:10422000121D11600AE0032803D1054A121F116014
:1042300004E0042802D1024A083A116070470000E5
:104240003C0400407047000070B5002100230F229D
:10425000C4781CB3174C246804F4E064C4F5E0642B
:10426000C4F30721C1F10404E3B20A4144789C403D
:10427000E1B28478144021430C07210E0E4C0578DE
:104280006155047804F01F050124AC4005786D11D8
:10429000AD0005F1E025C5F8004109E0047804F01F
:1042A0001F050124AC40054D0678761145F82640DF
:1042B00070BD00000CED00E000E400E080E100E0F3
:1042C00002490143024A1160704700000000FA05EC
:1042D0000CED00E01CB50B480B2100234FF40072DD
:1042E000CDE9001008A10B4804F086FB0A4805211F
:1042F00000234FF48072CDE9001008A10B4804F0B0
:104300007BFB1CBDD00000206E617669676174691B
:104310006F6E00003D7A0008CC000020666C696773
:10432000687453746174757300000000A17800080C
:1043300010B5012404223849182000F0E3FA0422C1
:104340003549091D192000F0DDFA042232490831EF
:104350001A2000F0D7FA04222F4920311B2000F048
:10436000D1FA04222C4924311C2000F0CBFA04227B
:10437000294928311D2000F0C5FA04222649403180
:104380001E2000F0BFFA0422234944311F2000F010
:10439000B9FA042220494831202000F0B3FA04225F
:1043A0001D496031212000F0ADFA04221A49803104
:1043B000222000F0A7FA04221749A031232000F0A0
:1043C000A1FA0021084623E0134A02EB40121168CB
:1043D00021F00042C2F1FF42D20FAAB90E4901EB0F
:1043E000401191ED000AB5EEC00AF1EE10FA0BD9BA
:1043F000094901EB401191ED000ADFED080AB4EE26
:10440000E00AF1EE10FA00DD0024411CC9B20846B2
:104410000628D9DB204610BDDC02002000007A44CB
:1044200000B52DED068B85B09FED7A2ADFED7A1A67
:104430009FED7A1AF2EE000AB0EE080A784800F012
:104440001DFA9FED742ADFED741A9FED741AF2EED7
:10445000000AB0EE080A7248203000F00FFA9FED13
:104460006D2ADFED6D1A9FED6F1AF1EE080AB1EEBD
:10447000040A6B48403000F001FA9FED6A2ADFED34
:10448000691A9FED681ADFED670AB1EE040A644805
:10449000603000F0F3F99FED632ADFED621A9FEDC3
:1044A000611ADFED600AB1EE000A5D48803000F06D
:1044B000E5F99FED5C2ADFED5B1A9FED5A1ADFEDFF
:1044C000590AB0EE080A5648A03000F0D7F900F0BB
:1044D000FBF8534890ED020A10EE101A0846FCF75C
:1044E00083F841EC180B4E4890ED010A10EE101ABB
:1044F0000846FCF779F841EC190B494890ED000AA1
:1045000010EE101A0846FCF76FF841EC1A0B8DED0F
:10451000028B8DED009B53EC1A2B43A001F0E6FAC1
:104520003F4890ED0A0A10EE101A0846FCF75CF8B6
:1045300041EC180B3A4890ED090A10EE101A0846A3
:10454000FCF752F841EC190B354890ED080A10EED3
:10455000101A0846FCF748F841EC1A0B8DED028B57
:104560008DED009B53EC1A2B3CA001F0BFFA2C48B8
:1045700090ED120A10EE101A0846FCF735F841ECDF
:10458000180B274890ED110A10EE101A0846FCF798
:104590002BF841EC190B224890ED100A10EE101A7E
:1045A0000846FCF721F841EC1A0B8DED028B8DEDDE
:1045B000009B53EC1A2B36A001F098FA184890EDA6
:1045C000280A10EE101A0846FCF70EF841EC180BFA
:1045D000134890ED200A10EE101A0846FCF704F874
:1045E00041EC190B0E4890ED180A10EE101A08460F
:1045F000FBF7FAFF41EC1A0B8DED028B8DED009B62
:1046000053EC1A2B2F4801F071FA05B0BDEC068B64
:1046100000BD000000000C4200007A43CDCC4C3EAF
:10462000DC020020000000000D0A20202020524F54
:104630004C4C5F494E4E45523A202020204B503A78
:104640002566202020204B493A2566202020204B3B
:10465000443A2566202020200D0A00000D0A202063
:10466000202050495443485F494E4E45523A20203D
:10467000204B503A2566202020204B493A256620C1
:104680002020204B443A2566202020200D0A0000DF
:104690000D0A202020205941575F494E4E45523A7D
:1046A00020202020204B503A2566202020204B49F6
:1046B0003A2566202020204B443A256620202020E1
:1046C0000D0A0000E491000810B51E49182000F002
:1046D000B5F91C49091D192000F0B0F91949083134
:1046E0001A2000F0ABF9174920311B2000F0A6F981
:1046F000144924311C2000F0A1F9124928311D2051
:1047000000F09CF90F4940311E2000F097F90D4947
:1047100044311F2000F092F90A494831202000F06E
:104720008DF908496031212000F088F90549803170
:10473000222000F083F90349A031232000F07EF904
:1047400010BD0000DC020020B0EE401A90ED020A1D
:10475000B5EEC00AF1EE10FA25D0F5EEC00AF1EE82
:1047600010FA20D090ED050A31EE400A80EE202AA2
:10477000F0EE421A90ED070A30EE200A80EE802A11
:1047800090ED060A71EEC02A90ED060A02EE220AAA
:10479000F0EE401A80ED051AC0ED061A90ED020AFF
:1047A00020EE210A70479FED010AFBE700000000A0
:1047B00010B52DED028B0446F0EE408AB0EE608A13
:1047C00094ED010AB5EEC00AF1EE10FA25D0B5EE6F
:1047D000C08AF1EE10FA20D094ED040AD4ED010A5B
:1047E00060EEA80A00EE880A84ED040AD4ED031AEC
:1047F000B0EE611AD4ED031AF1EE611AF0EE610A1F
:10480000D4ED041AB0EE610AFDF754F884ED040A01
:1048100094ED040ABDEC028B10BD9FED010AF9E78F
:1048200000000000F0EE400A90ED000A20EE200AA1
:10483000704710B52DED048B0446B0EE408AF0EEC3
:10484000608AB0EE480A2046FFF7ECFFB0EE409ACF
:10485000F0EE680AB0EE480A2046FFF7A9FF39EEED
:10486000003AF0EE680AB0EE480A2046FFF76CFF07
:1048700033EE000ABDEC048B10BD000080ED000A91
:10488000C0ED010A80ED021AC0ED031AB5EEC02A90
:10489000F1EE10FA0AD0DFED082A62EE222AB7EE16
:1048A000003AC3EE223AC0ED073A03E0DFED032AF7
:1048B000C0ED072A70470000DB0FC9400000000070
:1048C0000848408800B2084908800648808800B23D
:1048D00048800448C08800B288800248008900B23D
:1048E000C8807047F805002052010020002003E036
:1048F0000021034A1154401C9428F9D3704700004A
:10490000FC01002070B504460D461646034800EB36
:10491000840132462846FBF7AFFC70BDFC01002045
:1049200010B500F001F810BD7CB500240025002072
:104930000190009000BF06E0A1B21548FDF714FAFF
:1049400014490855641C942CF6D3042201A90020B4
:10495000FFF7D8FF252200210198FCF7E0FF019026
:10496000042269460120FFF7CDFF082403E009482F
:10497000005D0544641C0198B4EB800FF7D30098E8
:10498000A84204D0FFF7B2FF03A001F0AFF87CBD4E
:1049900000000E08FC0100200D0A2020666C6173E7
:1049A0006820646174652077726F6E6720200D0A3D
:1049B0000000000070B5002400250026FDF77CFBF8
:1049C000012803D100201349088070BD11480088D8
:1049D000012814D1252610480660082403E00E485B
:1049E000005D0544641C942CF9D30B484560942267
:1049F00001460A48FDF7BEF909A001F077F805481D
:104A00000088002804DD03480088401E0149088012
:104A100000BFDAE7A8000020FC01002000000E081B
:104A20000D0A2020666C6173682073616C766520C6
:104A3000646F776E202120200D0A0000044A02EBEB
:104A400080020B6813603C22024B1A807047000002
:104A5000FC010020A80000202DED040B83B09DED8B
:104A6000030A3F48D0ED000A30EE600A8DED000ADF
:104A70009DED040AD0ED010A30EE600A8DED010AC9
:104A80009DED050AD0ED020A30EE600A8DED020AB6
:104A900003A90EC90EC03348B0F900001E284DDA34
:104AA00030480088401C00B22E4908809DED000A65
:104AB000B5EEC00AF1EE10FA02DD9DED000A03E04A
:104AC0009DED000AB1EE400A2748D0ED000AB4EE91
:104AD000E00AF1EE10FA2BDC9DED010AB5EEC00AFA
:104AE000F1EE10FA02DD9DED010A03E09DED010AF1
:104AF000B1EE400A1C48D0ED000AB4EEE00AF1EE37
:104B000010FA15DC9DED020AB5EEC00AF1EE10FABE
:104B100002DD9DED020A03E09DED020AB1EE400ABE
:104B20001148D0ED000AB4EEE00AF1EE10FA15DDFE
:104B30000E480088401C0D4908800FE00B48008893
:104B40000A2803DD01200A49087102E00020084913
:104B500008710020054908800249088007B07047A5
:104B60009C020020B2000020AC000020B000002019
:104B70009002002010B52DED048BB0EE409AB0EEFF
:104B8000608AF0EE418AB0EE490A00F0EDFAB0EE2C
:104B9000401AB0EE480A00F0E7FA31EE001AB0EE23
:104BA000680A00F0E1FA31EE000AF0EE409A01F0F6
:104BB0002CFBBDEC048B10BD29B1064A12680243E0
:104BC000044B1A6004E0034A12688243014B1A60E6
:104BD000704700003038024029B1064A126802438B
:104BE000044B1A6004E0034A12688243014B1A60C6
:104BF0007047000040380240F0B500210022002438
:104C0000022500260223324F3F6807F00C0121B134
:104C1000042905D0082937D105E02E4F076036E07A
:104C20002D4F076033E02A4F3F1F3F68C7F3805680
:104C3000274F3F1F3F6807F03F036EB1264FB7FB7A
:104C4000F3F7DFF88CC0ACF1040CDCF800C0CCF357
:104C5000881C07FB0CF40CE01E4FB7FBF3F7DFF8E2
:104C600070C0ACF1040CDCF800C0CCF3881C07FB6E
:104C70000CF4174F3F1F3F68C7F301477F1C7D00AF
:104C8000B4FBF5F7076002E0124F076000BF00BFFA
:104C90000F4F3F6807F0F0010909104F7A5C076871
:104CA000D74047600A4F3F6807F4E051890A0B4F2D
:104CB0007A5C4768D7408760054F3F6807F46041DA
:104CC000490B064F7A5C4768D740C760F0BD0000CB
:104CD000083802400024F40000127A008601002007
:104CE00040F24C41884204DD40F26C71884200DAA7
:104CF0000AE040F24C41884201DA084604E040F202
:104D00006C71884200DD0846704710B500F008F865
:104D100000F02AF8FFF7D4FD00F08CF810BD000079
:104D20001FB56846FDF7E4F9DDE90001CDE90201B0
:104D3000BDF9080040F6AC5188420BDCBDF90A0011
:104D4000884207DCBDF90C00884203DCBDF90E0087
:104D5000884203DD00200349087002E00120014978
:104D600008701FBDE50000201FB56846FDF7C0F9BB
:104D7000DDE90001CDE90201BDF9080040F24C4136
:104D8000884243DABDF90A0040F26C7188423DDD89
:104D9000BDF90C0040F24C41884237DABDF90E00F3
:104DA000884233DAFDF788F9C0B9FDF7E1F91E4909
:104DB0000968401A40F6B83188420FD9FDF7D8F992
:104DC0001A490968401A40F2DC51884222D9012070
:104DD00000F0B6F80120164908701BE0FDF76CF9E9
:104DE000012817D112480078A0B9FDF7C1F90F4981
:104DF0000968401A40F6B83188420BD9002000F00B
:104E00009FF8FDF7B5F90849086003E0FDF7B0F930
:104E100006490860BDF90800B0F5966F02DD002074
:104E2000034908701FBD0000EC000020E8000020CE
:104E3000E40000201FB56846FDF75AF9DDE90001DE
:104E4000CDE902011D480078012830D1FDF734F981
:104E500068B3BDF90800FFF743FFADF80800BDF8DF
:104E60000800A0F2DC5000B215494880BDF90A00E4
:104E7000FFF736FFADF80A00BDF80A00A0F2DC50DB
:104E800000B20F490880BDF90C00FFF729FFADF80B
:104E90000C00BDF80C00A0F2DC5000B2084988807C
:104EA000BDF90E00FFF71CFF0549C88005E0002092
:104EB0000349488008808880C8801FBDE500002025
:104EC000DC00002010B540F2DC5005494880088025
:104ED000888040F24C40C880002000F053F810BD9C
:104EE000DC0000201CB50B480C2100234FF480721D
:104EF000CDE9001008A10C4803F07EFD0B48072106
:104F000000234FF48072CDE9001009A10B4803F093
:104F100073FD1CBDC0000020696D75446174615053
:104F20007265547265617400E1780008C400002065
:104F30006F7468657253656E736F7200C97A00088A
:104F4000014621B90020084A9070012070470129CC
:104F500008D105488078012800D1F7E70120024AEE
:104F60009070F3E70020F1E7900200202DED040B94
:104F700003489DE80E006C300EC004B0704700007E
:104F80005C030020072825D006DC32D2DFE800F0E1
:104F90000D11153131191A00082823D0092822D003
:104FA0000A2824D0FF2824D122E00021144AD171FC
:104FB00023E00121124AD1711FE00221104AD17170
:104FC0001BE01AE00E498978012902D106210C4A1A
:104FD000D17112E00A498978012902D10721084AD2
:104FE000D1710AE009E00921054AD17105E004E028
:104FF00003E00221024AD17100BF00BF70470000E8
:10500000900200202DED040B194890ED310ADFEDE0
:10501000190A20EE200ADDED010A9FED171A00EEB5
:10502000810A80ED310A90ED300ADFED120A20EEA0
:10503000200ADDED000AF1EE600A9FED0F1A00EE86
:10504000810A80ED300A90ED320ADFED0A0A20EE87
:10505000200ADDED020A9FED081A00EE810A80EDBC
:10506000320A9DED030A80ED330A04B07047000058
:10507000DC0200203333733FCDCC4C3D0CB5002017
:10508000019000903448006840F480303249086054
:1050900000BF3148006800F4003000900198401CC7
:1050A0000190009818B90198B0F5A04FF1D12A48A5
:1050B000006800F4003010B10120009001E00020F1
:1050C00000900098012846D123484030006840F005
:1050D00080502149403108602048006840F4404039
:1050E0001E4908601C48083000681B4908310860E8
:1050F0000846006840F4004008600846006840F434
:10510000A05008601648091F0860081F006840F09A
:105110008070091F086000BF0F48006800F0007031
:105120000028F9D040F205700E4908600A4808309E
:10513000006820F00300084908310860084600684C
:1051400040F00200086000BF03480830006800F02B
:105150000C000828F8D10CBD003802400070004057
:1051600008544007003C0240F0EE400A20EEA00A3E
:105170007047042808D14FF0E021096941F004018B
:105180004FF0E022116107E04FF0E021096921F0C2
:1051900004014FF0E02211617047000010B503F0E8
:1051A0005BFC012802D003F0E9F804E00248006843
:1051B000401C0149086010BD6C01002010B5154865
:1051C000006840F47000134908601348006840F01C
:1051D00001001149086000200F49083108600E489D
:1051E00000680E4908400C4908600D48091D086018
:1051F000081F006820F48020091F0860002006496D
:105200000C310860FFF73AFF4FF000600149803928
:10521000086010BD88ED00E000380240FFFFF6FE98
:1052200010300024F0B50C46154600210022068CF3
:105230004FF6FE773E400684018B028C4FF60C76CB
:1052400031407E1C06EA03162E4331434FF6F576B5
:10525000324044F00106324301830284F0BDF0B5D0
:105260000C461546002100220026078C4FF6EF7CE5
:1052700007EA0C070784018B028C4FF6FF7707EAD9
:10528000041640F6FF4739404FF6FF7707EA033729
:1052900039434FF6FF7707EA052739434FF65F7723
:1052A0003A4046F010073A4301830284F0BDF0B55E
:1052B0000C461546002100220026078C4FF6FF6C95
:1052C00007EA0C070784818B028C4FF6FF7707EA09
:1052D00004264FF60C7739404FF6FF7707EA03179D
:1052E0002F4339434FF2FF573A4046F480773A4311
:1052F00081830284F0BDF0B50C46154600210022E2
:105300000026078C4EF6FF7C07EA0C070784818B8A
:10531000028C4FF6FF7707EA043640F6FF47394024
:105320004FF6FF7707EA052739434FF6FF7707EA7D
:105330000337394345F6FF773A4046F480573A43FE
:1053400081830284F0BD000010B51021254800F0D3
:1053500075F8002844D01021224800F05DF821485B
:1053600000F069F8204908802048008809888842B0
:105370000ADD1E4800884FF6FF71081A1A4909888D
:1053800008441B49088006E0174800881749098827
:10539000401A1749088014480088144908801448A6
:1053A000008840F6AC51884202DB012011490870A8
:1053B00010480078012813D10D4800880E490F4A83
:1053C000128821F812000D480088401C0B49088003
:1053D00008460088052803DB00200880054908707E
:1053E00010BD0000000C0040480100204C010020CE
:1053F0004A01002050010020F80500204E01002045
:1054000021B1028842F08002028004E002884FF657
:105410007F731A4002807047CA430282704721B1ED
:10542000028842F00102028004E002884FF6FE7317
:105430001A40028070470146086C704730B502463A
:10544000002000230024158A05EA0103958905EA56
:10545000010413B10CB1012000E0002030BD70B593
:1054600005460C46208850B92389A28861882846C1
:10547000FFF7D8FEE188284600F07DF925E0208876
:1054800004280AD12389A28861882846FFF7E7FE0D
:10549000E188284600F078F917E0208808280AD12A
:1054A0002389A28861882846FFF701FFE188284602
:1054B00000F077F909E02389A28861882846FFF780
:1054C0001AFFE188284600F075F970BD1AB183898A
:1054D0000B43838102E083898B4383817047000003
:1054E00070B5002400220023058C4FF6FE7635406F
:1054F0000584028C8388048B4FF68F752C40B51E73
:105500002C400D882C43751E2A408D892A434D88D6
:105510002A43104DA84202D00F4DA84213D14FF696
:10552000F7752A40CD892A434FF6FB752A408D88AE
:105530002A434FF6FF652B404FF6FF552B400D8A4F
:105540002B434D8A2B43838004838D6845630284FB
:1055500070BD000000000140000401400A46002127
:10556000018B4FF6F7731940114301837047000018
:1055700070B5002400220023058C4FF6EF763540ED
:105580000584028C8388048B48F6FF752C404FF607
:10559000FF452C400D884FF6FF7606EA05252C4383
:1055A0004FF6DF752A408D8906EA05152A434D8896
:1055B00006EA05152A43154DA84202D0144DA8420B
:1055C0001DD14FF67F752A40CD894FF6FF7606EA4A
:1055D00005152A434FF6BF752A408D8806EA051542
:1055E0002A434FF6FF352B404FF2FF752B400D8AB3
:1055F00006EA85052B434D8A06EA85052B43838001
:1056000004838D688563028470BD00000000014042
:10561000000401400A460021018B4FF2FF7319403C
:105620004FF6FF7303EA022319430183704700001A
:1056300070B5002400220023058C4FF6FF6635402C
:105640000584028C8388848B4FF68F752C404FF62F
:10565000FC752C400D882C434FF6FF552A408D8950
:105660004FF6FF7606EA05252A434D8806EA05250A
:105670002A43154DA84202D0144DA8421DD14FF225
:10568000FF752A40CD894FF6FF7606EA05252A43A5
:105690004FF6FF352A408D8806EA05252A434EF647
:1056A000FF752B404DF6FF752B400D8A06EA051558
:1056B0002B434D8A06EA05152B43838084838D682E
:1056C000C563028470BD0000000001400004014079
:1056D0000A460021818B4FF6F773194011438183ED
:1056E0007047000070B5002200230024058C4EF6A0
:1056F000FF7635400584038C8488828B48F6FF75DD
:105700002A404FF6FF452A400D884FF6FF7606EAFD
:1057100005252A434DF6FF752B408D8906EA053590
:105720002B434D8806EA05352B430A4DA84202D08B
:10573000094DA84208D14BF6FF752C400D8A4FF653
:10574000FF7606EA85152C43848082838D68056484
:10575000038470BD00000140000401400A4600219E
:10576000818B4FF2FF7319404FF6FF7303EA022358
:10577000194381837047028B4FF6F3731A400283FB
:10578000028B0A4302837047028B4FF2FF331A40A9
:105790000283028B4FF6FF7303EA01231A4302834D
:1057A0007047828B4FF6F3731A408283828B0A43D1
:1057B00082837047828B4FF2FF331A408283828B41
:1057C0004FF6FF7303EA01231A43828370470000F8
:1057D00000220288184B98420ED0184B98420BD0EA
:1057E000B0F1804F08D0164B984205D0154B984227
:1057F00002D0154B984204D14FF68F731A404B8854
:105800001A43124B984207D0114B984204D04FF6DE
:10581000FF431A400B891A4302804B68C3620B880E
:105820000385054B984202D0044B984201D18B7AF4
:105830000386012383827047000001400004014079
:105840000004004000080040000C00400010004030
:105850000014004010B540F225511D4800F04AF8F0
:1058600010B31B4800F000F9C4B21A48008800F4D5
:105870000040C8B91748008800F4804060B10A2C85
:1058800003D000201349088020E01248008840F42B
:1058900000401049088019E00D2C06D10D48008801
:1058A00040F480400B49088010E00A480088C0F3AB
:1058B0000D0009490C5407480088401C0549088020
:1058C00008460088C72801DD0020088010BD0000C0
:1058D000004C004084010020E406002021B18289B0
:1058E00042F40052828104E082894DF6FF731A402F
:1058F0008281704770B502460024002300250020F5
:1059000040F66A16B14200D100BFC1F3421501F062
:105910001F03012606FA03F3012D02D196893340B5
:1059200006E0022D02D1168A334001E0968A334008
:105930000C12012606FA04F41688344013B10CB197
:10594000012000E0002070BDF0B5034600240026D1
:105950000025002040F66A17B94200D100BF184662
:10596000C1F3421401F01F06012707FA06F5012CC6
:1059700001D10C3004E0022C01D1103000E01430D1
:105980001AB107682F43076002E00768AF4307605A
:10599000F0BD00002DE9FF4705460E460024A14654
:1059A00000BFA046B08900B100BF2C8A24F4405447
:1059B000F08804432C82AC8941F20C608443B088A7
:1059C00031890843718908430443AC81AC8A24F4CB
:1059D0004074B0890443AC826846FFF70DF9204853
:1059E000854202D01F48854202D1DDF80C9001E0CB
:1059F000DDF80890A88900F4004040B109EBC90027
:105A000000EB091031684900B0FBF1F707E009EB42
:105A1000C90000EB091031688900B0FBF1F7642080
:105A2000B7FBF0F004012009642101FB1078A8897C
:105A300000F4004040B1322000EBC800B0FBF1F0B0
:105A400000F00700044308E0322000EB0810642156
:105A5000B0FBF1F000F00F0004432C81BDE8FF879C
:105A6000001001400014014001468888C0F308007E
:105A70007047000010B588B0FCF72EFB044668465E
:105A8000FCF73EFBDDE90001CDE90601BDF91A0096
:105A900000EE100AB8EEC00A1248D0ED000A20EE5F
:105AA000200A8DED020ABDF9180000EE100AB8EECA
:105AB000C00A0D48D0ED000A20EE200A8DED030A41
:105AC00024B902AADDE90601FEF78EFADDED051A1A
:105AD0009DED041ADDED030A9DED020AFFF792FA2F
